{"contracts/ReceiptAnchor.sol":{"ReceiptAnchor":{"abi":[{"anonymous":false,"inputs":[{"indexed":true,"internalType":"bytes32","name":"batchId","type":"bytes32"},{"indexed":false,"internalType":"bytes32","name":"merkleRoot","type":"bytes32"},{"indexed":false,"internalType":"uint256","name":"receiptCount","type":"uint256"},{"indexed":false,"internalType":"uint256","name":"anchoredAt","type":"uint256"}],"name":"BatchAnchored","type":"event"},{"inputs":[{"internalType":"bytes32","name":"batchId","type":"bytes32"},{"internalType":"bytes32","name":"merkleRoot","type":"bytes32"},{"internalType":"uint256","name":"receiptCount","type":"uint256"}],"name":"anchorBatch","outputs":[],"stateMutability":"nonpayable","type":"function"},{"inputs":[{"internalType":"bytes32","name":"batchId","type":"bytes32"}],"name":"getBatchRoot","outputs":[{"internalType":"bytes32","name":"","type":"bytes32"}],"stateMutability":"view","type":"function"}],"evm":{"bytecode":{"linkReferences":{},"object":"608060405234801561000f575f80fd5b506101d08061001d5f395ff3fe608060405234801561000f575f80fd5b5060043610610034575f3560e01c80633acba8ec146100385780636850ab7b14610069575b5f80fd5b61005761004636600461015a565b5f9081526020819052604090205490565b60405190815260200160405180910390f35b61007c610077366004610171565b61007e565b005b5f83815260208190526040902060020154156100d95760405162461bcd60e51b815260206004820152601660248201527518985d18da08185b1c9958591e48185b98da1bdc995960521b604482015260640160405180910390fd5b60408051606080820183528482526020808301858152428486018181525f8a81528085528790209551865591516001860155905160029094019390935583518681529081018590529283019190915284917f1e913e68ce77d254be7f9863bafdd1f77a4c24b12d979efc38690fa1b60dd217910160405180910390a2505050565b5f6020828403121561016a575f80fd5b5035919050565b5f805f60608486031215610183575f80fd5b50508135936020830135935060409092013591905056fea26469706673582212204cd88d5d05fdaa0ac10b816c6a2f66b0b08cd7c0b445f1a05ead9e64bae3de4064736f6c63430008180033","opcodes":"PUSH1 0x80 PUSH1 0x40 MSTORE CALLVALUE DUP1 ISZERO PUSH2 0xF JUMPI PUSH0 DUP1 REVERT JUMPDEST POP PUSH2 0x1D0 DUP1 PUSH2 0x1D PUSH0 CODECOPY PUSH0 RETURN INVALID PUSH1 0x80 PUSH1 0x40 MSTORE CALLVALUE DUP1 ISZERO PUSH2 0xF JUMPI PUSH0 DUP1 REVERT JUMPDEST POP PUSH1 0x4 CALLDATASIZE LT PUSH2 0x34 JUMPI PUSH0 CALLDATALOAD PUSH1 0xE0 SHR DUP1 PUSH4 0x3ACBA8EC EQ PUSH2 0x38 JUMPI DUP1 PUSH4 0x6850AB7B EQ PUSH2 0x69 JUMPI JUMPDEST PUSH0 DUP1 REVERT JUMPDEST PUSH2 0x57 PUSH2 0x46 CALLDATASIZE PUSH1 0x4 PUSH2 0x15A JUMP JUMPDEST PUSH0 SWAP1 DUP2 MSTORE PUSH1 0x20 DUP2 SWAP1 MSTORE PUSH1 0x40 SWAP1 KECCAK256 SLOAD SWAP1 JUMP JUMPDEST PUSH1 0x40 MLOAD SWAP1 DUP2 MSTORE PUSH1 0x20 ADD PUSH1 0x40 MLOAD DUP1 SWAP2 SUB SWAP1 RETURN JUMPDEST PUSH2 0x7C PUSH2 0x77 CALLDATASIZE PUSH1 0x4 PUSH2 0x171 JUMP JUMPDEST PUSH2 0x7E JUMP JUMPDEST STOP JUMPDEST PUSH0 DUP4 DUP2 MSTORE PUSH1 0x20 DUP2 SWAP1 MSTORE PUSH1 0x40 SWAP1 KECCAK256 PUSH1 0x2 ADD SLOAD ISZERO PUSH2 0xD9 JUMPI PUSH1 0x40 MLOAD PUSH3 0x461BCD PUSH1 0xE5 SHL DUP2 MSTORE PUSH1 0x20 PUSH1 0x4 DUP3 ADD MSTORE PUSH1 0x16 PUSH1 0x24 DUP3 ADD MSTORE PUSH22 0x18985D18DA08185B1C9958591E48185B98DA1BDC9959 PUSH1 0x52 SHL PUSH1 0x44 DUP3 ADD MSTORE PUSH1 0x64 ADD PUSH1 0x40 MLOAD DUP1 SWAP2 SUB SWAP1 REVERT JUMPDEST PUSH1 0x40 DUP1 MLOAD PUSH1 0x60 DUP1 DUP3 ADD DUP4 MSTORE DUP5 DUP3 MSTORE PUSH1 0x20 DUP1 DUP4 ADD DUP6 DUP2 MSTORE TIMESTAMP DUP5 DUP7 ADD DUP2 DUP2 MSTORE PUSH0 DUP11 DUP2 MSTORE DUP1 DUP6 MSTORE DUP8 SWAP1 KECCAK256 SWAP6 MLOAD DUP7 SSTORE SWAP2 MLOAD PUSH1 0x1 DUP7 ADD SSTORE SWAP1 MLOAD PUSH1 0x2 SWAP1 SWAP5 ADD SWAP4 SWAP1 SWAP4 SSTORE DUP4 MLOAD DUP7 DUP2 MSTORE SWAP1 DUP2 ADD DUP6 SWAP1 MSTORE SWAP3 DUP4 ADD SWAP2 SWAP1 SWAP2 MSTORE DUP5 SWAP2 PUSH32 0x1E913E68CE77D254BE7F9863BAFDD1F77A4C24B12D979EFC38690FA1B60DD217 SWAP2 ADD PUSH1 0x40 MLOAD DUP1 SWAP2 SUB SWAP1 LOG2 POP POP POP JUMP JUMPDEST PUSH0 PUSH1 0x20 DUP3 DUP5 SUB SLT ISZERO PUSH2 0x16A JUMPI PUSH0 DUP1 REVERT JUMPDEST POP CALLDATALOAD SWAP2 SWAP1 POP JUMP JUMPDEST PUSH0 DUP1 PUSH0 PUSH1 0x60 DUP5 DUP7 SUB SLT ISZERO PUSH2 0x183 JUMPI PUSH0 DUP1 REVERT JUMPDEST POP POP DUP2 CALLDATALOAD SWAP4 PUSH1 0x20 DUP4 ADD CALLDATALOAD SWAP4 POP PUSH1 0x40 SWAP1 SWAP3 ADD CALLDATALOAD SWAP2 SWAP1 POP JUMP INVALID LOG2 PUSH5 0x6970667358 0x22 SLT KECCAK256 0x4C 0xD8 DUP14 TSTORE SDIV REVERT 0xAA EXP 0xC1 SIGNEXTEND DUP2 PUSH13 0x6A2F66B0B08CD7C0B445F1A05E 0xAD SWAP15 PUSH5 0xBAE3DE4064 PUSH20 0x6F6C634300081800330000000000000000000000 "},"methodIdentifiers":{"anchorBatch(bytes32,bytes32,uint256)":"6850ab7b","getBatchRoot(bytes32)":"3acba8ec"}}}}}